:020000040800F2
:1000000000500020CD010008D1010008D3010008F4
:10001000E9010008EB0100080102000800000000EF
:10002000000000000000000000000000B104000813
:1000300019020008000000007904000861050008AA
:100040000D0100080D0100080D0100080D01000858
:100050000D0100080D0100080D0100080D01000848
:100060000D0100080D0100080D0100080D01000838
:100070000D0100080D0100080D0100080D01000828
:100080000D0100080D0100080D0100080D01000818
:100090000D0100080D0100080D0100080D01000808
:1000A0000D0100080D0100080D0100080D010008F8
:1000B0000D010008C10A00080D0100080D0100082B
:1000C0000D0100080D0100080D0100080D010008D8
:1000D000890D00087D090008490800080D01000885
:1000E0000D0100080D0100080D01000800000000CE
:1000F0000000000000000000000000000000000000
:1001000000000000000000005FF808F1FEE7FFFFBC
:1001100007B500F0B3F8224A224B23498B4228D37B
:100120000021224B224A934228D300F0B3F801A9C0
:10013000684600F069F972B600251E4E1E4CA41BDD
:10014000A410AC421DDC00251C4E1D4CA41BA410A9
:10015000AC421BDC62B69DE8030000F051FE06468F
:10016000184D194C641BA410002C14DC304600F010
:1001700053F952F8040F43F8040BCFE743F8041B7C
:10018000D1E756F8253098470135DAE756F825309B
:1001900098470135DCE7013C55F824309847E3E700
:1001A000CC0E0008000000202C0000202C000020B5
:1001B00004010020580200085802000858020008F4
:1001C0007C0200087C0200087C02000814480047FA
:1001D000FEE71EF0040F0CBFEFF30880EFF3098079
:1001E0007146104A1047FEE7FEE71EF0040F0CBFF1
:1001F000EFF30880EFF3098071460B4A1047FEE7E2
:100200001EF0040F0CBFEFF30880EFF30980714676
:10021000064A1047FEE7FEE7FEE7FEE770470000EC
:1002200011010008E7010008FF010008150200089D
:10023000D00E0008000000202C000020D00E000886
:1002400000000000000000002C000020040100203D
:100250000000000000000000C10400086D05000857
:100260008D0700089D080008D1090008B50B00089B
:0C027000DD0D0008190E0008810E0008CA
:10027C0008B500F00BF8024B024A9A6008BD00BFAB
:10028C0000ED00E00000000800F078B8374B82B0B9
:10029C001A6842F001021A605968354A0A405A60DD
:1002AC001A6822F0847222F480321A601A6822F4DE
:1002BC0080221A605A6822F4FE025A604FF41F0220
:1002CC009A600022009201921A6842F480321A60FD
:1002DC001A6802F400320192009A01320092019ADB
:1002EC001AB9009AB2F5A06FF2D11A6812F4003262
:1002FC0018BF01220192019A012A05D04FF0006229
:10030C001C4B9A6002B070471B4A116841F01001F7
:10031C001160116821F003011160116841F00201B4
:10032C0011605A685A605A685A605A6842F480627E
:10033C005A605A6822F47C125A605A6842F4E812E5
:10034C005A601A6842F080721A601A689201FCD5E1
:10035C005A6822F003025A605A6842F002025A604C
:10036C005A6802F00C02082AFAD1C7E700100240C2
:10037C000000FFF800ED00E000200240114A124B93
:10038C00516801F00C01042901D008290AD00F4949
:10039C00196052680E49C2F30312895C1A68CA408C
:1003AC001A60704751685068C1F38341C00301F172
:1003BC00020102D407484143EAE750688003F9D4AC
:1003CC000248F8E7001002401000002000127A00EA
:1003DC000000002000093D00BFF34F8F0549064B7C
:1003EC00CA6802F4E0621343CB60BFF34F8F00BFC7
:1003FC00FDE700BF00ED00E00400FA0501230360F7
:10040C00014B0B60704700BF1400002008B5FFF7CC
:10041C00E3FF0000094B10B51B68044683420AD168
:10042C00806800F0DEF8A36823B1054A536843F0F6
:10043C008053536010BD00F0E3F8F4E73000002067
:10044C0000ED00E038B504460D4600F0C3F86560D9
:10045C00204638BD01460148FFF7DCBF34000020C0
:10046C0001460148FFF7D6BF4000002070B50026BA
:10047C00094A0A4D536843F000635360084C204608
:10048C002C6000F0C7F82E6018B9A468002CF6D1C7
:10049C0070BD43689847F1E700ED00E030000020A4
:1004AC004000002001490248FFF7B4BF4C00002077
:1004BC004000002070B50025074C084E204600F087
:1004CC008CF83046A56000F088F8B460044C2046E7
:1004DC0000F080F8656070BD340000204000002002
:1004EC004C00002070B50B4D064629680A4800F0F8
:1004FC00A2F80446286058B14368013B436013B925
:10050C008368984760603046BDE87040FFF7A2BF33
:10051C0070BD00BF7000002058000020034A044842
:10052C00136801331360FFF795BF00BF5400002020
:10053C006000002070B504460E46154600F04AF8DF
:10054C006660A5602146024800F05AF8204670BD4E
:10055C005800002000210148FFF782BF68000020EE
:10056C0008B5134800F039F812491348FFF76AFF31
:10057C00F0200021114A124B5360124B83F82300D8
:10058C00916007211160D9680F4A21F4E0610904D8
:10059C00090C0A43DA607022DA7783F8232083F897
:1005AC0022000A490A48BDE80840FFF74BBF00BFCC
:1005BC0058000020F10400086000002010E000E06A
:1005CC003F19010000ED00E00006FA0529050008BE
:1005DC006800002000220260704700220260426026
:1005EC0070470B6843B943680133436003682BB110
:1005FC001B680B6003681960084670470160F9E7D7
:10060C000B6810B50A46044613B9FFF7EAFF2060E1
:10061C00104610BD036863B14268013A42601A6823
:10062C0011681960002111601B6803B90360104642
:10063C0070471A46FBE7006819B1814204D008687C
:10064C00704710B100687047002070474AF6C773B6
:10065C00984202DD4AF6C7707047002801DB80B271
:10066C007047002070470000F8B504460D4602881C
:10067C0037490B6802EB03130B6033B11B0903F012
:10068C000F010A4492B2002BF8D122802A883149FA
:10069C000B6802EB03130B6033B11B0903F00F0162
:1006AC000A4492B2002BF8D12A8023881A442A4B90
:1006BC001B68D21A294B1E69961B1A615968D86897
:1006CC0001FB0201D960B1F1804F1FDD4FF0804179
:1006DC00D960224B1868D968891300FB02129B68F9
:1006EC0003FB062620882B88C01A1D4A1769C71BD6
:1006FC0010615168D36801FB0031D160B1F1804FBA
:10070C000CDD4FF08042164BDA600EE0B1F1404F39
:10071C00DFDA4FF04041114BD960DAE7B1F1404FCD
:10072C0003DA4FF040420E4BDA600D4A1368D16881
:10073C00891303FB0013926802FB07377042C01B3E
:10074C00FFF784FF2080B81BFFF780FF2880F8BDDF
:10075C0074000020780000201C0000207C00002089
:10076C0090000020044B186043F69723B3FBF0F085
:10077C00024B1860704700BF1C0000207C0000205A
:10078C00094B4AF6C7721A6064225A604FF47A71A8
:10079C00996000221A61DA60044B19600A205860D3
:1007AC0099601A61DA6070477C000020900000208C
:1007BC00014B9880704700BF0044004010B51B4BA4
:1007CC001C88A4B214F0200F06D114F0800F08D1AD
:1007DC004022174B5A6010BD9888C0B2FFF7E8FF53
:1007EC00F3E7144B1A6862B113490B68581C086084
:1007FC001B78013A0F490A605AB900210E4A116060
:10080C0007E00D4B1A6842B1137833B101320A4933
:10081C000A609BB2054A9380DAE7044A938923F075
:10082C0080031B041B0C9381D2E700BF00440040E3
:10083C0000E100E0AC000020B000002008B5402230
:10084C00034BC3F8842000210248FFF709FE08BDC2
:10085C0000E100E0A40000200A4B1B6873B90A4BAE
:10086C001B680BB11B785BB9074B1860074A93895F
:10087C009BB243F0800393810120704700207047A6
:10088C0000207047AC000020B00000200044004065
:10089C0008B5124A936943F00403936110490B683D
:1008AC0023F4706343F420630B60D36943F4003387
:1008BC00D361A2F5E63240F2391313812C239381D4
:1008CC0093899BB243F4005393814022054B5A60A9
:1008DC0005490648FFF7B6FD08BD00BF00100240F1
:1008EC000008014000E100E0C9070008A400002056
:1008FC0010B51B4B1C88A4B214F0200F06D114F0B9
:10090C00800F08D12022174B5A6010BD9888C0B2B6
:10091C0000F0F2F8F3E7144B1A6862B113490B6854
:10092C00581C08601B78013A0F490A605AB900211B
:10093C000E4A116007E00D4B1A6842B1137833B1BF
:10094C0001320A490A609BB2054A9380DAE7044AED
:10095C00938923F080031B041B0C9381D2E700BF07
:10096C000038014000E100E0BC000020C000002085
:10097C0008B52022034BC3F8842000210248FFF75E
:10098C006FFD08BD00E100E0B40000200A4B1B68BD
:10099C0073B90A4B1B680BB11B785BB9074B18601A
:1009AC00074A93899BB243F08003938101207047DF
:1009BC000020704700207047BC000020C0000020C1
:1009CC000038014008B5124A936943F0040393615F
:1009DC0010494B6823F0F00343F0A0034B6093697C
:1009EC0043F480439361A2F5584240F27123138182
:1009FC002C23938193899BB243F40053938120223F
:100A0C00054B5A6005490648FFF71CFD08BD00BFA1
:100A1C00001002400008014000E100E0FD08000861
:100A2C00B400002030B583B01C4B1D881C4C2388AF
:100A3C00EB1AADF804301B4B18881B4A1388C31AE9
:100A4C0002A921F8023D2580108001A8FFF70CFEB9
:100A5C00164B1B7813F0010F14BFBDF804100021C6
:100A6C00134A918613F0020F14BFBDF80410002135
:100A7C000F4A118713F0040F14BFBDF806100021A4
:100A8C000B4A918713F0080F14BFBDF80620002203
:100A9C00074BA3F8402003B030BD00BFC4000020BA
:100AAC00C8000020C6000020CA000020CC00002096
:100ABC00000400400C4B9A8C0C4B1A804FF0804376
:100ACC009A8C0B4B1A800B4A138A23F001031B04DC
:100ADC001B0C138202F55052FF23938193889BB217
:100AEC0043F080039380704700080040C40000204E
:100AFC00C60000200004004008B530281AD0312868
:100B0C001CD032281ED0332820D0342822D03528AF
:100B1C0024D0362826D0372828D038282AD039286F
:100B2C002CD066282ED0622830D06C2832D0722877
:100B3C0034D008BD00221B4B1A7008BD0120FFF7F2
:100B4C0011FE08BD0220FFF70DFE08BD0320FFF7C4
:100B5C0009FE08BD0420FFF705FE08BD0620FFF7BF
:100B6C0001FE08BD0820FFF7FDFD08BD0A20FFF7B8
:100B7C00F9FD08BD0D20FFF7F5FD08BD1220FFF7AC
:100B8C00F1FD08BD0622074B1A7008BD0922054B62
:100B9C001A7008BD0522034B1A7008BD0A22014BBE
:100BAC001A70C6E7CC00002010B5304CE36943F056
:100BBC000703E3612E4B03221A854AF6C7729A8506
:100BCC002C48672202814FF080410A810A8B92B235
:100BDC0042F480720A83028B92B242F480720283D6
:100BEC000A8892B242F001020A80028892B242F064
:100BFC000102028046F668029A831A8341F21112AE
:100C0C001A84A26942F00C02A261A4F58434226811
:100C1C0022F07F4242F02A42226004F5806422686E
:100C2C0022F0FF0242F0AA0222601A8892B242F02D
:100C3C0001021A801A8A22F001021204120C1A8282
:100C4C009A8992B242F001029A814FF000520A4BFB
:100C5C001A60828C094B1A808A8C094B1A8000F01E
:100C6C005FF808490848FFF7EDFB10BD0010024083
:100C7C00000400400008004000E100E0C400002037
:100C8C00C6000020310A0008D000002008B5224B15
:100C9C001B7803F00102002A14BF202130211F4AC7
:100CAC00517003F00202002A14BF202131211B4A8B
:100CBC00917003F00402002A14BF20213221174A3C
:100CCC00D17003F00802002A14BF20213321134AEB
:100CDC00117103F01002002A14BF202134210F4A95
:100CEC00517103F02002002A14BF202135210B4A38
:100CFC00917103F04002002A14BF20213621074ACB
:100D0C00D1715BB2002BB4BF202337231046137272
:100D1C00FFF73CFEC82008BDD800002020000020B2
:100D2C00124A936943F00803936111494B6823F00D
:100D3C00704323F4700343F0204343F420034B60CF
:100D4C00D36943F48043D3610A4B9A8892B242F040
:100D5C0040029A8040F23F321A801A8892B242F0D6
:100D6C0040021A801022044B5A6070470010024057
:100D7C00000C01400038004000E100E008B5114BC8
:100D8C009B8813F0800F02D000220E4B9A810D4BE2
:100D9C001B8913F0010F14D00A4A93899BB29288D5
:100DAC0012F0800F07D0074A938823F080031B04AE
:100DBC001B0C938008BD044A137000210348FFF7F5
:100DCC004FFB08BD00380040D8000020D0000020A8
:100DDC0008B5034AC8210348FFF7ACFB08BD00BFA8
:100DEC00990C0008DC00002008B500F035F84FF431
:100DFC007A7008BDFEE7000008B500F02DF8024837
:100E0C00FFF72AFD08BD00BFC80E000808B5034A4D
:100E1C004FF47A710248FFF78DFB08BDF50D000801
:100E2C00E80000207047000008B5094B9B6803F4EC
:100E3C000053084A1268934204D0064A13601BB947
:100E4C00FFF7DAFF642008BDFFF7ECFFFAE700BFFD
:100E5C0000100140F4000020054BDB6813F0200F5C
:100E6C004FF02002024B14BF5A611A61704700BF49
:100E7C000008014008B50C4A936943F014039361D0
:100E8C00A2F58432136823F4700343F40013136047
:100E9C00064B9B6803F40053054A1360054A642112
:100EAC000548FFF747FB08BD001002400010014049
:100EBC00F4000020350E0008F800002068656C6C0A
:040ECC006F0D0A009C
:100ED00000000000000000000102030406070809EA
:100EE00000A24A042C0000200000000001000000C5
:0C0EF0000D303132333435363700FFFF4F
:0400000508000111DD
:00000001FF
